:100000000C944A000C948C010C94B5010C94DE0104
:100010000C9448030C9494020C9475030C94EE0217
:100020000C941B030C9467020C94C1020C943A02CA
:100030000C945C000C945C000C945C000C945C00D0
:100040000C945E000C9487000C945C000C945C0093
:100050000C945C000C011001140118011C0120011A
:10006000240128012C013001340138013C014001F8
:10007000440148014C015001540158015C016001E8
:10008000640168016C017001740178017C018001D8
:100090008401880111241FBECFE5D8E0DEBFCDBFAB
:1000A00020E0A0E6B0E001C01D92AA37B207E1F758
:1000B0000E94A2030C94C3030C9400001F920F92A1
:1000C0000FB60F9211242F933F934F935F936F932B
:1000D0007F938F939F93AF93BF93EF93FF93E091A1
:1000E0006000F0916100309709F00995FF91EF9160
:1000F000BF91AF919F918F917F916F915F914F9140
:100100003F912F910F900FBE0F901F9018951F9247
:100110000F920FB60F9211242F933F934F935F933B
:100120006F937F938F939F93AF93BF93EF93FF93BF
:10013000E0916200F0916300309709F00995FF911A
:10014000EF91BF91AF919F918F917F916F915F914F
:100150004F913F912F910F900FBE0F901F901895C8
:10016000611110C0813041F028F0823039F08330C5
:1001700039F008951ABA089517BA089514BA08956F
:1001800011BA08956130A1F4813049F028F082302D
:1001900049F0833051F008958FEF8ABB08958FEFB7
:1001A00087BB08958FEF84BB08958FEF81BB0895BF
:1001B0006230B9F4813051F028F0823059F0833048
:1001C00069F008951ABA8FEF8BBB089517BA8FEFB5
:1001D00088BB089514BA8FEF85BB089511BA8FEFCD
:1001E00082BB0895813041F028F0823039F08330AD
:1001F00039F008956BBB089568BB089565BB0895F9
:1002000062BB089590E08032910508F084C0FC0143
:10021000E65DFF4F0C94BD038BB381608BBB0895EB
:100220008BB382608BBB08958BB384608BBB0895C6
:100230008BB388608BBB08958BB380618BBB0895B3
:100240008BB380628BBB08958BB380648BBB0895A6
:100250008BB380688BBB089588B3816088BB089599
:1002600088B3826088BB089588B3846088BB089592
:1002700088B3886088BB089588B3806188BB08957F
:1002800088B3806288BB089588B3806488BB089572
:1002900088B3806888BB089585B3816085BB089565
:1002A00085B3826085BB089585B3846085BB08955E
:1002B00085B3886085BB089585B3806185BB08954B
:1002C00085B3806285BB089585B3806485BB08953E
:1002D00085B3806885BB089582B3816082BB089531
:1002E00082B3826082BB089582B3846082BB08952A
:1002F00082B3886082BB089582B3806182BB089517
:1003000082B3806282BB089582B3806482BB089509
:1003100082B3806882BB08951F920F920FB60F922E
:1003200011242F933F934F935F936F937F938F93FA
:100330009F93AF93BF93EF93FF93E0916800F09189
:100340006900309709F00995FF91EF91BF91AF9146
:100350009F918F917F916F915F914F913F912F91DD
:100360000F900FBE0F901F9018951F920F920FB60F
:100370000F9211242F933F934F935F936F937F932B
:100380008F939F93AF93BF93EF93FF93E09166009A
:10039000F0916700309709F00995FF91EF91BF91B7
:1003A000AF919F918F917F916F915F914F913F910D
:1003B0002F910F900FBE0F901F9018951F920F92C4
:1003C0000FB60F9211242F933F934F935F936F9328
:1003D0007F938F939F93AF93BF93EF93FF93E0919E
:1003E0006400F0916500309709F00995FF91EF9155
:1003F000BF91AF919F918F917F916F915F914F913D
:100400003F912F910F900FBE0F901F901895813044
:1004100081F018F0823011F10895611104C088B79D
:10042000816088BF0895613021F588B7826088BFF8
:100430000895611104C088B7846088BF0895613051
:1004400039F488B7886088BF88B7806188BF08950D
:10045000623079F488B7806288BF0895611104C062
:1004600088B7806488BF0895613019F488B78068C0
:1004700088BF08951F920F920FB60F9211242F93E9
:100480003F934F935F936F937F938F939F93AF931C
:10049000BF93EF93FF93E0917800F091790030974C
:1004A00029F0099560E080E00E940702FF91EF913A
:1004B000BF91AF919F918F917F916F915F914F917C
:1004C0003F912F910F900FBE0F901F9018951F9284
:1004D0000F920FB60F9211242F933F934F935F9378
:1004E0006F937F938F939F93AF93BF93EF93FF93FC
:1004F000E0917600F0917700309729F0099560E05F
:1005000081E00E940702FF91EF91BF91AF919F910F
:100510008F917F916F915F914F913F912F910F90AC
:100520000FBE0F901F9018951F920F920FB60F924B
:1005300011242F933F934F935F936F937F938F93E8
:100540009F93AF93BF93EF93FF93E0917400F0916B
:100550007500309729F0099560E082E00E9407025B
:10056000FF91EF91BF91AF919F918F917F916F918B
:100570005F914F913F912F910F900FBE0F901F9061
:1005800018951F920F920FB60F9211242F933F933D
:100590004F935F936F937F938F939F93AF93BF938B
:1005A000EF93FF93E0917200F0917300309729F080
:1005B000099561E080E00E940702FF91EF91BF91F1
:1005C000AF919F918F917F916F915F914F913F91EB
:1005D0002F910F900FBE0F901F9018951F920F92A2
:1005E0000FB60F9211242F933F934F935F936F9306
:1005F0007F938F939F93AF93BF93EF93FF93E0917C
:100600007000F0917100309729F0099561E081E068
:100610000E940702FF91EF91BF91AF919F918F913F
:100620007F916F915F914F913F912F910F900FBEEE
:100630000F901F9018951F920F920FB60F921124D2
:100640002F933F934F935F936F937F938F939F93DA
:10065000AF93BF93EF93FF93E0916E00F0916F0023
:10066000309729F0099561E081E00E940702FF912F
:10067000EF91BF91AF919F918F917F916F915F911A
:100680004F913F912F910F900FBE0F901F90189593
:100690001F920F920FB60F9211242F933F934F93F7
:1006A0005F936F937F938F939F93AF93BF93EF93DA
:1006B000FF93E0916C00F0916D00309729F009955F
:1006C00061E082E00E940702FF91EF91BF91AF913C
:1006D0009F918F917F916F915F914F913F912F915A
:1006E0000F900FBE0F901F9018951F920F920FB68C
:1006F0000F9211242F933F934F935F936F937F93A8
:100700008F939F93AF93BF93EF93FF93E0916A0012
:10071000F0916B00309729F0099562E081E00E942A
:100720000702FF91EF91BF91AF919F918F917F91C0
:100730006F915F914F913F912F910F900FBE0F904E
:100740001F90189561E080E00E94B00061E081E0B8
:100750000E94B0008AE10E940201C0E0CF5F6C2FCE
:1007600081E00E94F2002FEF83ED90E32150804062
:100770009040E1F700C00000F1CFEE0FFF1F0590A1
:0A078000F491E02D0994F894FFCFE6
:00000001FF
