:100000000C942A000C9408020C940E020C94140216
:100010000C9447000C9447000C943F020C9447004A
:100020000C9447000C941A020C9447000C94CB02D9
:100030000C9447000C9447000C9447000C94470024
:100040000C9447000C9447000C9447000C94470014
:100050000C94470011241FBECFE5D8E0DEBFCDBF12
:1000600010E0A0E6B0E0ECEDF8E002C005900D92E3
:10007000A236B107D9F720E0A2E6B0E001C01D9298
:10008000AC37B207E1F70E94D6020C946C040C94D2
:100090000000611110C0813041F028F0823039F049
:1000A000833039F008951ABA089517BA089514BA2A
:1000B000089511BA08956130A1F4813049F028F013
:1000C000823049F0833051F008958FEF8ABB089554
:1000D0008FEF87BB08958FEF84BB08958FEF81BBAF
:1000E00008956230B9F4813051F028F0823059F02F
:1000F000833069F008951ABA8FEF8BBB089517BA51
:100100008FEF88BB089514BA8FEF85BB089511BA9D
:100110008FEF82BB0895813041F028F0823039F0B2
:10012000833039F008956BBB089568BB089565BBB3
:10013000089562BB0895411138C0813091F028F0D4
:100140008230D9F0833029F108952AB381E090E01C
:1001500002C0880F991F6A95E2F7809582238ABBB7
:10016000089527B381E090E002C0880F991F6A9537
:10017000E2F78095822387BB089524B381E090E065
:1001800002C0880F991F6A95E2F78095822384BB8D
:10019000089521B381E090E002C0880F991F6A950D
:1001A000E2F78095822381BB08954130A1F581302B
:1001B00089F028F08230C9F0833011F108952AB314
:1001C00081E090E002C0880F991F6A95E2F7822BC8
:1001D0008ABB089527B381E090E002C0880F991F81
:1001E0006A95E2F7822B87BB089524B381E090E003
:1001F00002C0880F991F6A95E2F7822B84BB08958D
:1002000021B381E090E002C0880F991F6A95E2F760
:10021000822B81BB0895423009F047C08130B1F094
:1002200028F0823019F1833089F108952AB381E0F2
:1002300090E002C0880F991F6A95E2F7982F909579
:1002400092239ABB9BB3892B8BBB089527B381E084
:1002500090E002C0880F991F6A95E2F7982F909559
:10026000922397BB98B3892B88BB089524B381E070
:1002700090E002C0880F991F6A95E2F7982F909539
:10028000922394BB95B3892B85BB089521B381E05C
:1002900090E002C0880F991F6A95E2F7982F909519
:1002A000922391BB92B3892B82BB0895811124C004
:1002B000613069F028F0623089F06330B1F0089560
:1002C00085B78D7F85BF85B78E7F85BF089585B73C
:1002D0008D7F85BF85B7816085BF089585B78260B2
:1002E00085BF85B78E7F85BF089585B78D7F85BF14
:1002F00085B7816085BF0895813021F5613069F04F
:1003000028F0623089F06330B1F0089585B7877FB7
:1003100085BF85B78B7F85BF089585B7877F85BFEC
:1003200085B7846085BF089585B7886085BF85B728
:100330008B7F85BF089585B7877F85BF85B784602C
:1003400085BF0895823059F4623021F484B78F7BE1
:1003500084BF0895633019F484B7806484BF08951E
:10036000813041F018F0823049F008958BB78064F5
:100370008BBF08958BB780688BBF08958BB7806261
:100380008BBF0895813041F018F0823049F0089514
:100390008AB780648ABF08958AB780688ABF089543
:1003A0008AB780628ABF0895813049F018F08230A0
:1003B00059F00895709365006093640008957093F8
:1003C0006700609366000895709363006093620015
:1003D00008958FB780688FBF08950F931F93CF93B1
:1003E000DF93C82FD62F8A010E94C2016D2F8C2F58
:1003F0000E9456018C2F0E94B0010E94E901B801B1
:100400008C2F0E94D401DF91CF911F910F910895FD
:10041000E0916400F091650009950895E09166000F
:10042000F091670009950895E0916200F0916300F2
:10043000099508951F920F920FB60F9211248F9372
:100440009F93AF93BF938091780090917900A09192
:100450007A00B0917B000196A11DB11D80937800B8
:1004600090937900A0937A00B0937B00BF91AF91F5
:100470009F918F910F900FBE0F901F9018951F9214
:100480000F920FB60F9211242F933F934F935F93C8
:100490006F937F938F939F93AF93BF93EF93FF934C
:1004A0008091600090916100892B59F086B597B5D5
:1004B0009093770080937600109261001092600014
:1004C00059C086B597B5909375008093740080E00D
:1004D00090E0A0E0BFE38093680090936900A09350
:1004E0006A00B0936B002091740030917500809188
:1004F000780090917900A0917A00B0917B00DC01A6
:1005000099278827820F931FA11DB11D2091760086
:1005100030917700BC01CD01621B730B81099109F9
:100520000E94320320E030E040E05FE30E94960347
:100530000E94FA029B01AC016093700070937100FD
:10054000809372009093730061E070E080E090E02F
:100550000E942B0420936C0030936D0040936E003A
:1005600050936F00109278001092790010927A00E8
:1005700010927B00FF91EF91BF91AF919F918F916E
:100580007F916F915F914F913F912F910F900FBE8F
:100590000F901F9018951F920F920FB60F92112473
:1005A0000F900FBE0F901F901895089541E060E0E6
:1005B00080E00E949B0061E081E00E94490042E0EF
:1005C00062E083E00E949B0045ED52E062E080E043
:1005D0000E94ED01C0E0CF5F6C2F81E00E948B0094
:1005E0002FEF83ED90E3215080409040E1F700C071
:1005F0000000F1CF0E9401036894B1110C949003A4
:1006000008950E94750388F09F5798F0B92F992795
:10061000B751B0F0E1F0660F771F881F991F1AF0ED
:10062000BA95C9F714C0B13091F00E948F03B1E0C0
:1006300008950C948F03672F782F8827B85F39F0BF
:10064000B93FCCF3869577956795B395D9F73EF486
:1006500090958095709561957F4F8F4F9F4F08952E
:10066000E89409C097FB3EF490958095709561954C
:100670007F4F8F4F9F4F9923A9F0F92F96E9BB2702
:100680009395F695879577956795B795F111F8CF7E
:10069000FAF4BB0F11F460FF1BC06F5F7F4F8F4FE9
:1006A0009F4F16C0882311F096E911C0772321F0DF
:1006B0009EE8872F762F05C0662371F096E8862F77
:1006C00070E060E02AF09A95660F771F881FDAF7CE
:1006D000880F9695879597F9089557FD9058440F80
:1006E000551F59F05F3F71F04795880F97FB991F91
:1006F00061F09F3F79F0879508951216130614064E
:10070000551FF2CF4695F1DF08C0161617061806DA
:10071000991FF1CF86957105610508940895E894B5
:10072000BB2766277727CB0197F908950E94A90375
:100730000C941A040E940C0438F00E94130420F058
:10074000952311F00C9403040C94090411240C94C7
:1007500090030E946D0370F3959FC1F3950F50E0D5
:10076000551F629FF001729FBB27F00DB11D639F63
:10077000AA27F00DB11DAA1F649F6627B00DA11D09
:10078000661F829F2227B00DA11D621F739FB00DAF
:10079000A11D621F839FA00D611D221F749F33271F
:1007A000A00D611D231F849F600D211D822F762FB8
:1007B0006A2F11249F5750409AF0F1F088234AF095
:1007C000EE0FFF1FBB1F661F771F881F9150504001
:1007D000A9F79E3F510580F00C9403040C949003FC
:1007E0005F3FE4F3983ED4F3869577956795B79588
:1007F000F795E7959F5FC1F7FE2B880F911D9695A2
:10080000879597F9089597F99F6780E870E060E011
:1008100008959FEF80EC089500240A941616170699
:1008200018060906089500240A94121613061406E1
:1008300005060895092E0394000C11F4882352F044
:10084000BB0F40F4BF2B11F460FF04C06F5F7F4FFC
:100850008F4F9F4F0895052E97FB1EF400940E9422
:10086000420457FD07D00E944A0407FC03D04EF40F
:100870000C94420450954095309521953F4F4F4F31
:100880005F4F089590958095709561957F4F8F4F3C
:100890009F4F0895A1E21A2EAA1BBB1BFD010DC09C
:1008A000AA1FBB1FEE1FFF1FA217B307E407F50720
:1008B00020F0A21BB30BE40BF50B661F771F881FFC
:1008C000991F1A9469F760957095809590959B0192
:0C08D000AC01BD01CF010895F894FFCFEA
:0208DC00010019
:040000050080007601
:00000001FF
