:100000000C9434000C9448000C945A000C946C002E
:100010000C9481000C9496000C9446000C944600BD
:100020000C9446000C9446000C9446000C94460038
:100030000C9446000C9446000C9446000C94460028
:100040000C94C3000C9446000C9446000C9446009B
:100050000C9446000C9446000C9446000C94460008
:100060000C9446000C94460011241FBECFEFD8E03C
:10007000DEBFCDBF21E0A0E0B1E001C01D92A03005
:10008000B207E1F70E94AE000C94D7000C94000078
:100090001F920F920FB60F9211248F939F939BB1D3
:1000A00081E089278BB99F918F910F900FBE0F90A0
:1000B0001F9018951F920F920FB60F9211248F93D5
:1000C0009F939BB182E089278BB99F918F910F906D
:1000D0000FBE0F901F9018951F920F920FB60F92A0
:1000E00011248F93189B04C08BB18E7F8BB903C0F2
:1000F0008BB181608BB98F910F900FBE0F901F90C5
:1001000018951F920F920FB60F9211248F93309B68
:1001100004C08BB18D7F8BB903C08BB182608BB96A
:100120008F910F900FBE0F901F9018951F920F92F6
:100130000FB60F9211248F939F934F9908C09BB1D4
:1001400081E089278BB99BB182E089278BB99F9188
:100150008F910F900FBE0F901F90189585B58D7FD2
:1001600085BD85B5856085BD83E686BDEEE6F0E09C
:1001700080818160808378948AB180618AB98BB1F3
:100180008F7E8BB9FFCF1F920F920FB60F92112463
:100190008F939F9383E686BD9BB180E189278BB9BE
:1001A0009F918F910F900FBE0F901F901895F8940C
:0201B000FFCF7F
:00000001FF
