:100000000C9434000C9448000C945A000C94A600F4
:100010000C94BB000C94D0000C9446000C94460049
:100020000C9446000C9446000C9446000C94460038
:100030000C9446000C9446000C9446000C94460028
:100040000C9446000C9446000C9446000C94460018
:100050000C9446000C9446000C9446000C94460008
:100060000C9446000C94460011241FBECFEFD8E03C
:10007000DEBFCDBF21E0A0E0B1E001C01D92A03005
:10008000B207E1F70E946C000C94E8000C940000A9
:100090001F920F920FB60F9211248F939F939BB1D3
:1000A00081E089278BB99F918F910F900FBE0F90A0
:1000B0001F9018951F920F920FB60F9211248F93D5
:1000C0009F939BB182E089278BB99F918F910F906D
:1000D0000FBE0F901F901895E8E6F0E080818160D8
:1000E0008083808182608083808184608083EBE66E
:1000F000F0E0808181608083ECE6F0E080818160C7
:100100008083EDE6F0E080818068808378948AB116
:1001100081608AB98BB18E7F8BB98AB182608AB9CE
:100120008BB18D7F8BB984B18E7F84B985B18160AD
:1001300085B987B18E7F87B988B1816088B98AB166
:100140008F778AB98BB180688BB9FFCF1F920F92DE
:100150000FB60F9211248F93189B04C08BB18E7F22
:100160008BB903C08BB181608BB98F910F900FBE9B
:100170000F901F9018951F920F920FB60F92112497
:100180008F93309B04C08BB18D7F8BB903C08BB133
:1001900082608BB98F910F900FBE0F901F901895B2
:1001A0001F920F920FB60F9211248F939F934F9926
:1001B00008C09BB181E089278BB99BB182E0892778
:1001C0008BB99F918F910F900FBE0F901F90189534
:0401D000F894FFCFD1
:00000001FF
