:100000000C9434000C9464000C9476000C9446001C
:100010000C9446000C9446000C9446000C94460048
:100020000C9446000C9446000C9446000C94460038
:100030000C9446000C9446000C9446000C94460028
:100040000C9446000C9446000C9446000C94460018
:100050000C9446000C9446000C9446000C94460008
:100060000C9446000C94460011241FBECFEFD8E03C
:10007000DEBFCDBF21E0A0E0B1E001C01D92A03005
:10008000B207E1F70E9448000C9488000C9400002D
:10009000E9E6F0E080818E6F808380818C608083D0
:1000A0008DB381608DBB8DB382608DBB78948AB136
:1000B00081608AB98BB18E7F8BB98AB182608AB92F
:1000C0008BB18D7F8BB9FFCF1F920F920FB60F921E
:1000D00011248F939F939BB181E089278BB99F91C6
:1000E0008F910F900FBE0F901F9018951F920F9237
:1000F0000FB60F9211248F939F939BB182E08927B3
:100100008BB99F918F910F900FBE0F901F901895F4
:04011000F894FFCF91
:00000001FF
