:100000000C9434000C9448000C945A000C946C002E
:100010000C9481000C9496000C9446000C944600BD
:100020000C9446000C9446000C9446000C94460038
:100030000C9446000C9446000C94AE000C944600C0
:100040000C94C0000C9446000C9446000C9446009E
:100050000C9446000C9446000C9446000C94460008
:100060000C9446000C94460011241FBECFEFD8E03C
:10007000DEBFCDBF21E0A0E0B1E001C01D92A03005
:10008000B207E1F70E94D4000C9400010C94000028
:100090001F920F920FB60F9211248F939F939BB1D3
:1000A00081E089278BB99F918F910F900FBE0F90A0
:1000B0001F9018951F920F920FB60F9211248F93D5
:1000C0009F939BB182E089278BB99F918F910F906D
:1000D0000FBE0F901F9018951F920F920FB60F92A0
:1000E00011248F93189B04C08BB18E7F8BB903C0F2
:1000F0008BB181608BB98F910F900FBE0F901F90C5
:1001000018951F920F920FB60F9211248F93309B68
:1001100004C08BB18D7F8BB903C08BB182608BB96A
:100120008F910F900FBE0F901F9018951F920F92F6
:100130000FB60F9211248F939F934F9908C09BB1D4
:1001400081E089278BB99BB182E089278BB99F9188
:100150008F910F900FBE0F901F9018951F920F92C6
:100160000FB60F9211248F939F939BB180E1892743
:100170008BB99F918F910F900FBE0F901F90189584
:100180001F920F920FB60F9211248F939F9383E6C5
:1001900086BD9BB180E189278BB99F918F910F908C
:1001A0000FBE0F901F9018958AB180648AB98AB1EA
:1001B00080628AB985B5817085BD85B5846085BD4D
:1001C00084B5806884BD84B58F7B84BD84B580622E
:1001D00084BD84B58F7E84BD84B5836084BD84EB8B
:1001E00087BD82E388BD8AB181608AB98BB18E7F79
:1001F0008BB98AB182608AB98BB18D7F8BB9FFCF01
:04020000F894FFCFA0
:00000001FF
