:100000000C9434000C943E000C943E000C943E0082
:100010000C943E000C943E000C943E000C943E0068
:100020000C943E000C943E000C943E000C943E0058
:100030000C943E000C943E000C943E000C943E0048
:100040000C943E000C943E000C943E000C943E0038
:100050000C943E000C943E000C943E000C943E0028
:100060000C943E000C943E0011241FBECFEFD8E04C
:10007000DEBFCDBF0E9440000C945C000C940000D9
:100080008AB18D7F8AB98BB18D7F8BB98AB181603E
:100090008AB98BB18E7F8BB9499B04C08BB18E7F9F
:1000A0008BB9FACF8FE59AEE0197F1F700C0000007
:0C00B0008BB181608BB9F0CFF894FFCFCA
:00000001FF
