:100000000C942A000C9447000C9447000C94470071
:100010000C9447000C9447000C9447000C94470044
:100020000C9447000C9447000C9447000C94470034
:100030000C9447000C9447000C9447000C94470024
:100040000C9447000C9447000C9447000C94470014
:100050000C94470011241FBECFE5D8E0DEBFCDBF12
:1000600010E0A0E6B0E0E4EFF2E002C005900D92EF
:10007000A636B107D9F720E0A6E6B0E001C01D9290
:10008000AA36B207E1F70E9449000C9478010C945B
:1000900000008FE190E00E94570044E650E060E0ED
:1000A00070E0FC014083518362837383FFCF0F9321
:1000B0001F93CF93DF938230910510F482E090E09C
:1000C000E0916800F091690020E030E0A0E0B0E04D
:1000D000309719F1408151810281138148175907E6
:1000E000C8F08417950769F4109731F012960C93B5
:1000F000129713961C9327C0009368001093690011
:1001000022C02115310519F04217530718F49A013E
:10011000BD01EF01DF01F801DBCF21153105F9F059
:10012000281B390B2430310580F48A819B816115AD
:10013000710521F0FB019383828304C090936900D1
:1001400080936800FE01329644C0FE01E20FF31F67
:100150008193919322503109398328833AC02091A9
:10016000660030916700232B41F4209162003091AA
:100170006300309367002093660020916000309107
:1001800061002115310541F42DB73EB7409164005F
:1001900050916500241B350BE0916600F0916700DB
:1001A000E217F307A0F42E1B3F0B2817390778F04E
:1001B000AC014E5F5F4F2417350748F04E0F5F1FAD
:1001C00050936700409366008193919302C0E0E0F2
:1001D000F0E0CF01DF91CF911F910F910895CF9360
:1001E000DF93009709F481C0FC01329713821282D9
:1001F000A0916800B0916900109781F4208131814D
:10020000820F931F209166003091670028173907ED
:1002100051F5F0936700E093660067C0ED0120E0C0
:1002200030E0CE17DF0740F44A815B819E01411523
:100230005105F1F0EA01F5CFD383C28340815181AA
:10024000840F951FC817D90759F488819981840FA5
:10025000951F0296918380838A819B8193838283F9
:100260002115310529F4F0936900E09368003DC041
:10027000E901FB83EA8349915991C40FD51FEC171B
:10028000FD0761F480819181840F951F0296E90139
:1002900099838883828193819B838A83E0E0F0E065
:1002A00012968D919C911397009719F0FD01DC0136
:1002B000F7CF8D919C9111979D012E5F3F4F820F3B
:1002C000931F20916600309167002817390769F461
:1002D000309729F4109269001092680002C01382CE
:1002E0001282B0936700A0936600DF91CF910895CA
:0402F000F894FFCFB0
:0602F40000006A0020007A
:00000001FF
